:020000040800F2
:1000000000000220612700084D2600085326000842
:10001000592600085F260008652600080000000039
:100020000000000000000000000000006B26000837
:1000300079260008000000008726000895260008A1
:10004000B1270008B1270008B1270008B127000830
:10005000B1270008B1270008B1270008B127000820
:10006000B1270008B1270008B1270008B127000810
:10007000A1260008B1270008B1270008B127000811
:10008000B1270008B1270008B1270008B1270008F0
:10009000B1270008B1270008B1270008B1270008E0
:1000A000B5260008B1270008B1270008B1270008CD
:1000B000B1270008B1270008B1270008B1270008C0
:1000C000B1270008B1270008B1270008B1270008B0
:1000D000B1270008B1270008B1270008B1270008A0
:1000E000B1270008B1270008B1270008B127000890
:1000F000B1270008B1270008B1270008B127000880
:10010000B1270008B1270008B1270008B12700086F
:10011000B1270008B1270008B1270008B12700085F
:10012000B1270008B1270008B1270008B12700084F
:10013000B1270008B1270008B1270008B12700083F
:10014000B1270008B1270008B1270008B12700082F
:10015000B1270008B1270008B1270008B12700081F
:10016000B1270008B1270008B1270008B12700080F
:10017000B1270008B1270008B127000800000000DF
:08018000B1270008B1270008B7
:1001900010B5054C237833B9044B13B10448AFF3C1
:1001A00000800123237010BD6000002000000000CB
:1001B0000469000808B5034B1BB103490348AFF3BA
:1001C000008008BD000000006400002004690008F1
:1001D00081F0004102E000BF83F0004330B54FEAF8
:1001E00041044FEA430594EA050F08BF90EA020F65
:1001F0001FBF54EA000C55EA020C7FEA645C7FEAF8
:10020000655C00F0E2804FEA5454D4EB5555B8BF1A
:100210006D420CDD2C4480EA020281EA030382EA8B
:10022000000083EA010180EA020281EA0303362D1D
:1002300088BF30BD11F0004F4FEA01314FF4801CF0
:100240004CEA113102D0404261EB410113F0004F02
:100250004FEA03334CEA133302D0524263EB4303B9
:1002600094EA050F00F0A780A4F10104D5F1200E57
:100270000DDB02FA0EFC22FA05F2801841F10001B2
:1002800003FA0EF2801843FA05F359410EE0A5F186
:1002900020050EF1200E012A03FA0EFC28BF4CF0B7
:1002A000020C43FA05F3C01851EBE37101F000456D
:1002B00007D54FF0000EDCF1000C7EEB00006EEB7A
:1002C0000101B1F5801F1BD3B1F5001F0CD3490804
:1002D0005FEA30004FEA3C0C04F101044FEA44525B
:1002E00012F5800F80F09A80BCF1004F08BF5FEAE2
:1002F000500C50F1000041EB045141EA050130BDC2
:100300005FEA4C0C404141EB0101013C28BFB1F5D3
:10031000801FE9D291F0000F04BF01460020B1FA1E
:1003200081F308BF2033A3F10B03B3F120020CDAF1
:100330000C3208DD02F1140CC2F10C0201FA0CF0CF
:1003400021FA02F10CE002F11402D8BFC2F1200C34
:1003500001FA02F120FA0CFCDCBF41EA0C019040EA
:10036000E41AA2BF01EB0451294330BD6FEA040433
:100370001F3C1CDA0C340EDC04F11404C4F120021E
:1003800020FA04F001FA02F340EA030021FA04F330
:1003900045EA030130BDC4F10C04C4F1200220FA87
:1003A00002F001FA04F340EA0300294630BD21FAC5
:1003B00004F0294630BD94F0000F83F4801306BF8B
:1003C00081F480110134013D4EE77FEA645C18BF7F
:1003D0007FEA655C29D094EA050F08BF90EA020F16
:1003E00005D054EA000C04BF1946104630BD91EA0E
:1003F000030F1EBF0021002030BD5FEA545C05D111
:100400004000494128BF41F0004130BD14F580044F
:100410003CBF01F5801130BD01F0004545F0FE41C3
:1004200041F470014FF0000030BD7FEA645C1ABFF8
:10043000194610467FEA655C1CBF0B46024650EA2F
:10044000013406BF52EA033591EA030F41F400215B
:1004500030BD00BF90F0000F04BF0021704730B5E1
:100460004FF4806404F132044FF000054FF00001B6
:1004700050E700BF90F0000F04BF0021704730B577
:100480004FF4806404F1320410F0004548BF40424C
:100490004FF000013EE700BF42004FEAE2014FEAA1
:1004A00031014FEA02701FBF12F07F4393F07F4F7C
:1004B00081F06051704732F07F4208BF704793F07F
:1004C0007F4F04BF41F40021704730B54FF4607492
:1004D00001F0004521F000411CE700BF50EA010295
:1004E00008BF704730B54FF000050AE050EA01023E
:1004F00008BF704730B511F0004502D5404261EBAE
:1005000041014FF4806404F132045FEA915C3FF4EE
:10051000D8AE4FF003025FEADC0C18BF03325FEA8B
:10052000DC0C18BF033202EBDC02C2F1200300FA3C
:1005300003FC20FA02F001FA03FE40EA0E0021FA61
:1005400002F11444BDE600BF70B54FF0FF0C4CF44F
:10055000E06C1CEA11541DBF1CEA135594EA0C0F01
:1005600095EA0C0F00F0DEF82C4481EA030621EA3C
:100570004C5123EA4C5350EA013518BF52EA033577
:1005800041F4801143F4801338D0A0FB02CE4FF029
:100590000005E1FB02E506F00042E0FB03E54FF059
:1005A0000006E1FB03569CF0000F18BF4EF0010E51
:1005B000A4F1FF04B6F5007F64F5407404D25FEA4D
:1005C0004E0E6D4146EB060642EAC62141EA555100
:1005D0004FEAC52040EA5E504FEACE2EB4F1FD0C42
:1005E00088BFBCF5E06F1ED8BEF1004F08BF5FEAC0
:1005F000500E50F1000041EB045170BD06F0004672
:1006000046EA010140EA020081EA0301B4EB5C041E
:10061000C2BFD4EB0C0541EA045170BD41F4801116
:100620004FF0000E013C00F3AB8014F1360FDEBF3B
:10063000002001F0004170BDC4F10004203C35DA17
:100640000C341BDC04F11404C4F1200500FA05F39A
:1006500020FA04F001FA05F240EA020001F000423B
:1006600021F0004110EBD37021FA04F642EB0601B1
:100670005EEA430E08BF20EAD37070BDC4F10C04DB
:10068000C4F1200500FA04F320FA05F001FA04F29F
:1006900040EA020001F0004110EBD37041F100018B
:1006A0005EEA430E08BF20EAD37070BDC4F1200596
:1006B00000FA05F24EEA020E20FA04F301FA05F2FE
:1006C00043EA020321FA04F001F0004121FA04F2A6
:1006D00020EA020000EBD3705EEA430E08BF20EA76
:1006E000D37070BD94F0000F0FD101F000464000B0
:1006F00041EB010111F4801F08BF013CF7D041EA32
:10070000060195F0000F18BF704703F00046520035
:1007100043EB030313F4801F08BF013DF7D043EA06
:100720000603704794EA0C0F0CEA135518BF95EABC
:100730000C0F0CD050EA410618BF52EA4306D1D143
:1007400081EA030101F000414FF0000070BD50EA62
:10075000410606BF1046194652EA430619D094EAEC
:100760000C0F02D150EA013613D195EA0C0F05D1D6
:1007700052EA03361CBF104619460AD181EA03012A
:1007800001F0004141F0FE4141F470014FF00000E2
:1007900070BD41F0FE4141F4780170BD70B54FF07D
:1007A000FF0C4CF4E06C1CEA11541DBF1CEA1355FD
:1007B00094EA0C0F95EA0C0F00F0A7F8A4EB0504DF
:1007C00081EA030E52EA03354FEA013100F08880D6
:1007D0004FEA03334FF0805545EA131343EA12639F
:1007E0004FEA022245EA111545EA10654FEA002654
:1007F0000EF000419D4208BF964244F1FD0404F50D
:10080000407402D25B084FEA3202B61A65EB030568
:100810005B084FEA32024FF480104FF4002CB6EB25
:10082000020E75EB030E22BFB61A754640EA0C00A5
:100830005B084FEA3202B6EB020E75EB030E22BFE5
:10084000B61A754640EA5C005B084FEA3202B6EB26
:10085000020E75EB030E22BFB61A754640EA9C00E5
:100860005B084FEA3202B6EB020E75EB030E22BFB5
:10087000B61A754640EADC0055EA060E18D04FEA73
:10088000051545EA16754FEA06164FEAC30343EA13
:1008900052734FEAC2025FEA1C1CC0D111F4801FE0
:1008A0000BD141EA00014FF000004FF0004CB6E7D9
:1008B00011F4801F04BF01430020B4F1FD0C88BF78
:1008C000BCF5E06F3FF6AFAEB5EB030C04BFB6EB83
:1008D000020C5FEA500C50F1000041EB045170BD76
:1008E0000EF0004E4EEA113114EB5C04C2BFD4EBA3
:1008F0000C0541EA045170BD41F480114FF0000E27
:10090000013C90E645EA060E8DE60CEA135594EAA2
:100910000C0F08BF95EA0C0F3FF43BAF94EA0C0FA5
:100920000AD150EA01347FF434AF95EA0C0F7FF41A
:1009300025AF104619462CE795EA0C0F06D152EA6E
:1009400003353FF4FDAE1046194622E750EA410652
:1009500018BF52EA43067FF4C5AE50EA41047FF463
:100960000DAF52EA43057FF4EBAE12E74FEA4102C6
:10097000B2F1E04324BFB3F5001CDCF1FE5C0DD9FD
:1009800001F0004C4FEAC0024CEA5070B2F1004F47
:1009900040EB830008BF20F00100704711F0804F4A
:1009A00021D113F13872BCBF01F00040704741F40F
:1009B00080114FEA5252C2F11802C2F1200C10FA13
:1009C0000CF320FA02F018BF40F001004FEAC123F7
:1009D0004FEAD32303FA0CFC40EA0C0023FA02F39B
:1009E0004FEA4303CCE77FEA625307D150EA013371
:1009F0001EBF4FF0FE4040F44000704701F0004041
:100A000040F0FE4040F40000704700BF80F000401E
:100A100002E000BF81F0004142001FBF5FEA4103D6
:100A200092EA030F7FEA226C7FEA236C6AD04FEAD6
:100A30001262D2EB1363C1BFD2184140484041401B
:100A4000B8BF5B42192B88BF704710F0004F40F4CD
:100A5000000020F07F4018BF404211F0004F41F4E9
:100A6000000121F07F4118BF494292EA030F3FD0B5
:100A7000A2F1010241FA03FC10EB0C00C3F12003C8
:100A800001FA03F100F0004302D5494260EB400057
:100A9000B0F5000F13D3B0F1807F06D340084FEAC2
:100AA000310102F10102FE2A51D2B1F1004F40EBB7
:100AB000C25008BF20F0010040EA0300704749001F
:100AC00040EB0000013A28BFB0F5000FEDD2B0FABC
:100AD00080FCACF1080CB2EB0C0200FA0CF0AABFDF
:100AE00000EBC25052421843BCBFD040184370477D
:100AF00092F0000F81F4000106BF80F40000013283
:100B0000013BB5E74FEA41037FEA226C18BF7FEA59
:100B1000236C21D092EA030F04D092F0000F08BF9B
:100B20000846704790EA010F1CBF0020704712F082
:100B30007F4F04D1400028BF40F00040704712F1C1
:100B400000723CBF00F50000704700F0004343F026
:100B5000FE4040F4000070477FEA226216BF08465C
:100B60007FEA23630146420206BF5FEA412390EA1F
:100B7000010F40F4800070474FF0000304E000BF15
:100B800010F0004348BF40425FEA000C08BF7047C6
:100B900043F0964301464FF000001CE050EA01028A
:100BA00008BF70474FF000030AE000BF50EA01029F
:100BB00008BF704711F0004302D5404261EB41018C
:100BC0005FEA010C02BF84460146002043F0B643B1
:100BD00008BFA3F18053A3F50003BCFA8CF2083AD6
:100BE000A3EBC25310DB01FA02FC634400FA02FCDF
:100BF000C2F12002BCF1004F20FA02F243EB0200E6
:100C000008BF20F00100704702F1200201FA02FC47
:100C1000C2F1200250EA4C0021FA02F243EB02003A
:100C200008BF20EADC70704753B94AB9002908BFF1
:100C300000281CBF4FF0FF314FF0FF3000F070B9BB
:100C4000ADF1080C6DE904CE00F006F8DDF804E023
:100C5000DDE9022304B070472DE9F047089E0D46F8
:100C600004460F46002B4AD18A42944665D9B2FA0F
:100C700082F343B102FA03FCC3F120029F4020FA41
:100C800002F217439C404FEA1C4E1FFA8CF5B7FB4B
:100C9000FEF1220C0EFB117742EA074201FB05F040
:100CA00090420AD91CEB020201F1FF3780F01C814F
:100CB000904240F2198102396244121AA4B2B2FB86
:100CC000FEF00EFB102244EA024400FB05F5A542AB
:100CD0000AD91CEB040400F1FF3280F00781A54221
:100CE00040F204816444023840EA0140641B002160
:100CF0001EB1DC400023C6E90043BDE8F0878B420B
:100D000008D9002E00F0ED800021C6E90005084654
:100D1000BDE8F087B3FA83F1002949D1AB4202D391
:100D2000824200F2F880841A65EB03020120174624
:100D3000002EE2D0C6E90047DFE702B9FFDEB2FAD3
:100D400082F3002B40F090808A1A4FEA1C471FFA6A
:100D50008CFE0121B2FBF7F507FB1520220C42EABD
:100D600000420EFB05F0904208D91CEB020205F18F
:100D7000FF3802D2904200F2CB804546121AA4B24C
:100D8000B2FBF7F007FB102244EA02440EFB00FE20
:100D9000A64508D91CEB040400F1FF3202D2A64597
:100DA00000F2BB801046A4EB0E0440EA05409FE72A
:100DB000C1F120078B4022FA07FC4CEA030C05FA2C
:100DC00001F420FA07F3FD404FEA1C492343B5FB29
:100DD000F9F81FFA8CFE09FB18551C0C44EA05446F
:100DE00008FB0EF5A54202FA01F200FA01F00BD958
:100DF0001CEB040408F1FF3A80F08880A54240F221
:100E00008580A8F102086444641B9DB2B4FBF9F329
:100E100009FB134445EA044403FB0EFEA64508D92A
:100E20001CEB040403F1FF356CD2A6456AD9023BE2
:100E3000644443EA0843A3FB0295A4EB0E04AC42CE
:100E4000C846AE4656D353D056B1B0EB080264EB59
:100E50000E0404FA07F7CA40CC401743C6E90074F1
:100E600018460021BDE8F087C3F1200102FA03FC17
:100E700020FA01F225FA01F19D402A434FEA1C476E
:100E80001FFA8CFEB1FBF7F007FB1015110C41EABD
:100E9000054100FB0EF58D4204FA03F408D91CEB62
:100EA000010100F1FF382FD28D422DD90238614463
:100EB000491B92B2B1FBF7F507FB151142EA01425B
:100EC00005FB0EF1914208D91CEB020205F1FF3837
:100ED00016D2914214D9023D6244521A45EA0041A9
:100EE00038E73146304608E73946E6E61046FBE685
:100EF0004845A9D2B9EB020865EB0C0E013BA3E70C
:100F00004546EAE72B4694E74046D1E7D0467BE7E3
:100F1000023D624432E708460AE76444023842E789
:100F2000704700BF034613F8012B002AFBD1181AA3
:100F300001387047000000000000000000000000C1
:100F400001F0FF01102A2BDB10F0070F08D010F87A
:100F5000013B013A8B422DD010F0070F42B3F6D17E
:100F6000F0B441EA012141EA014122F007047FF097
:100F700000070023F0E80256083C85EA010586EAEE
:100F8000010685FA47F5A3FA87F586FA47F6A5FA2A
:100F900087F68EB9EED1F0BC01F0FF0102F0070236
:100FA00032B110F8013B013A83EA010313B1F8D1E1
:100FB0000020704701387047002D06BF35460338C2
:100FC000073815F0010F07D1013015F4807F02BFFB
:100FD000013015F4C03F0130F0BC0138704700BF4C
:100FE00080B483B000AF786039603B68002B4DDB84
:100FF0007B681B69002B06D13B689AB27B685B68F3
:101000001B685A631EE07B681B69042B07D13B6891
:1010100099B27B685B681A680B46936312E07B6841
:101020001B69082B07D13B6899B27B685B681A681B
:101030000B46D36306E03B6899B27B685B681A682D
:101040000B4613647B685B69002B05D17B685B688A
:101050001B6800225A636FE07B685B69042B05D133
:101060007B685B681A680023936365E07B685B6953
:10107000082B05D17B685B681A680023D3635BE0AB
:101080007B685B681A680023136455E07B681B6902
:10109000002B05D17B685B681B6800225A6318E04F
:1010A0007B681B69042B05D17B685B681A68002389
:1010B00093630EE07B681B69082B05D17B685B6836
:1010C0001A680023D36304E07B685B681A68002316
:1010D00013647B685B69002B08D13B689BB25B4261
:1010E0009AB27B685B681B685A6325E07B685B6922
:1010F000042B09D13B689BB25B4299B27B685B6869
:101100001A680B46936317E07B685B69082B09D16B
:101110003B689BB25B4299B27B685B681A680B467E
:10112000D36309E03B689BB25B4299B27B685B6822
:101130001A680B461364FFE700BF0C37BD465DF825
:10114000047B70472DE9B04384B000AFF860B9600C
:101150007A6087ED000AFB681B681B685B6A19B23E
:10116000FB68D3E9022309B2C8170C46054612EB07
:10117000040843EB0509FB68C3E90289FB681B68A7
:101180001B6800225A62FB68D3E902231046194605
:10119000FFF70CFD06EE900AFB6893ED0C7AC6EEA5
:1011A000877AFB68C3ED097AFB685A6ABB681A60E4
:1011B000FB6893ED097AFB68D3ED0B7A77EE676AEB
:1011C00097ED007AC6EE877AFB68C3ED087AFB6874
:1011D0001A6A7B681A60FB685A6AFB68DA6200BFA9
:1011E0001037BD46BDE8B08380B586B000AF7861EA
:1011F00087ED040AC7ED030A87ED021AC7ED011A4D
:10120000786900F010F87B693A691A607B69FA68BE
:101210005A607B69BA689A607B697A685A6400BFD1
:101220001837BD4680BD80B483B000AF78607B685E
:101230004FF00002DA617B684FF000021A627B68AF
:101240004FF000025A627B684FF000029A637B689D
:101250004FF000021A6300BF0C37BD465DF8047BF7
:10126000704780B485B000AFF86087ED020AC7ED23
:10127000010AFB687A68DA63FB68BA681A6400BF1F
:101280001437BD465DF8047B704780B485B000AF6D
:10129000F86087ED020AC7ED010AFB687A689A6276
:1012A000FB68BA68DA6200BF1437BD465DF8047B9C
:1012B000704780B483B000AF786087ED000A7B6828
:1012C0003A68DA6000BF0C37BD465DF8047B7047B2
:1012D000B0B582B000AF786087ED000A7B6893ED0F
:1012E000007AD7ED007A67EE277A7B68C3ED077A3C
:1012F0007B6893ED057AD7ED007A37EE277A7B6825
:10130000D3ED017A67EE277A17EE900AFFF7C4F85B
:101310004FF00002744BFFF717F902460B461446D4
:101320001D467B6893ED0C7A7B68D3ED037A67EEFC
:10133000277A17EE900AFFF7AFF802460B462046D1
:101340002946FEF74BFF02460B4614461D467B68B6
:101350005B6C1846FFF7A0F84FF00002634BFFF7F5
:101360001DFA02460B4620462946FFF7EDF80246D5
:101370000B4614461D467B681B6A1846FFF78CF81F
:1013800002460B4620462946FEF728FF02460B463A
:1013900010461946FFF7EAFA02467B681A627B6834
:1013A00093ED087A7B68D3ED0A7AB4EEE77AF1EE32
:1013B00010FA04DD7B689A6A7B681A620EE07B682B
:1013C00093ED087A7B68D3ED0B7AB4EEE77AF1EE11
:1013D00010FA03D57B68DA6A7B681A627B68D3ED02
:1013E000057A97ED007A77EE677A7B68C3ED0D7A20
:1013F0007B685B6B1846FFF74FF804460D467B6829
:101400005B6C1846FFF748F84FF00002374BFFF7C8
:10141000C5F902460B4620462946FFF7BFF90246AA
:101420000B4610461946FFF7A1FA02467B685A623E
:101430007B683A685A617B6893ED077A7B68D3EDE5
:10144000087A37EE277A7B68D3ED026A7B68D3EDA2
:10145000097A66EEA77A77EE277A7B68C3ED0E7A73
:101460007B6893ED0E7A7B68D3ED0F7AB4EEE77A62
:10147000F1EE10FA0FDD7B6893ED0E7A7B68D3ED09
:101480000F7A77EE677A7B68C3ED0C7A7B68DA6B4C
:101490007B689A631EE07B6893ED0E7A7B68D3EDE0
:1014A000107AB4EEE77AF1EE10FA0FD57B6893ED7F
:1014B0000E7A7B68D3ED107A77EE677A7B68C3ED9E
:1014C0000C7A7B681A6C7B689A6303E07B684FF048
:1014D00000021A637B689B6B07EE903AB0EE670AD6
:1014E0000837BD46B0BD00BF0000E03F00408F4060
:1014F00080B584B002AF78602A4B1B78012B4CD1A9
:101500000A21786804F0D4FB0346002B45D0264915
:10151000786804F0DAFB0346002B32D0234B0193AA
:10152000234B0093234B244A2449786804F08AFB18
:10153000214BD3ED007AB0EE670A214801F0B0F9F3
:101540001C4BD3ED007AB0EE670A1E4801F0A8F9F3
:10155000174BD3ED007AB0EE670A1B4801F0A0F9F3
:10156000124BD3ED007AB0EE670A184801F098F9F3
:101570007868FFF7D7FC03461A460021786804F024
:101580008FFB084B00221A707868FFF7CBFC0346EC
:101590001A460021786804F083FB00BF0837BD4677
:1015A00080BD00BF7C0300201C6900088C03002064
:1015B00088030020840300208003002020690008A5
:1015C0007004002024050020D80500208C0600208F
:1015D00080B500AF64220749074803F0A8FD074B18
:1015E0001B681A68054B1B6822F008021A6000BFCE
:1015F00080BD00BF1803002074020020B802002044
:1016000080B582B000AF78600B467B807B681B683A
:10161000084A93420AD1084A7B881380074B01226B
:101620001A7064220649786803F081FD00BF08370C
:10163000BD4680BD004800407E0300207C030020A2
:101640001803002080B582B000AF78604FF40051DD
:101650001B4802F026F840211A4802F022F81A4BE3
:101660001B78032B26D801A252F823F07D16000820
:101670008B16000899160008A7160008134801F0F9
:1016800025F9114B01221A7015E0114801F01EF9DD
:101690000D4B02221A700EE00E4801F017F90A4BAA
:1016A00003221A7007E00C4801F010F9064B0022E3
:1016B0001A7000E000BF00BF0837BD4680BD00BF04
:1016C000000802400004024040070020700400208F
:1016D00024050020D80500208C06002080B500AF2E
:1016E00004F03EFA00F0ECF800F0A4FC00F082FCFC
:1016F00000F050F900F0A6F900F0F8F900F04AFA0D
:1017000000F0E0FA00F032FB00F0DCFB00F048FCF7
:10171000FFF75EFFF1EE001A9FED581ADFED570A52
:10172000B7EE000A564801F060F8F1EE001A9FED9E
:10173000531ADFED540AB7EE000A514801F039F8A8
:10174000DFED510A9FED510A4D4801F06BF8DFEDD6
:10175000500A9FED500A4A4801F086F840229FED5A
:101760004E0A4E49464801F02BF9F1EE001A9FED62
:10177000431ADFED420AB7EE000A494801F035F896
:10178000F1EE001A9FED3D1ADFED3E0AB7EE000ABA
:10179000434801F00EF8DFED3C0A9FED3C0A40485B
:1017A00001F040F8DFED3A0A9FED3A0A3C4801F0BB
:1017B0005BF840229FED380A3A49394801F000F9B8
:1017C000F1EE001A9FED2D1ADFED2C0AB7EE000A9C
:1017D000354801F00AF8F1EE001A9FED281ADFED06
:1017E000290AB7EE000A304800F0E3FFDFED260AD1
:1017F0009FED260A2C4801F015F8DFED250A9FED34
:10180000250A294801F030F840229FED230A274994
:10181000254801F0D5F8F1EE001A9FED181ADFED1A
:10182000170AB7EE000A224800F0DFFFF1EE001AB7
:101830009FED121ADFED130AB7EE000A1C4800F004
:10184000B8FFDFED110A9FED110A194800F0EAFF19
:10185000DFED0F0A9FED0F0A154801F005F8402251
:101860009FED0D0A1349124801F0AAF8124802F040
:10187000FDFC1248FFF73CFEFBE700BF0000000044
:10188000700400200000484300C0794400C079C4BF
:101890000000FA430000FAC3000004429003002055
:1018A00024050020C8030020D805002000040020E3
:1018B0008C060020380400202C0200201803002091
:1018C00080B594B000AF07F1200330220021184604
:1018D00004F0E6F907F10C0300221A605A609A60DE
:1018E000DA601A610023BB60284B1B6C274A43F067
:1018F00080531364254B1B6C03F08053BB60BB68A3
:1019000000237B60224B1B68214A43F48043136011
:101910001F4B1B6803F480437B607B6802233B62A0
:101920000123FB6210233B630223BB630023FB63A1
:1019300008233B64A8237B640223BB640423FB6469
:1019400007F12003184601F0C7FE0346002B01D023
:1019500000F0E6FB0F23FB6002233B6100237B6169
:101960004FF4A053BB614FF48053FB6107F10C03AC
:101970000521184602F028F90346002B01D000F09B
:10198000CFFB00BF5037BD4680BD00BF00380240CE
:101990000070004080B58CB000AF07F10C0324222A
:1019A0000021184604F07CF93B1D00221A605A60A1
:1019B000224B234A1A60214B00225A601F4B0022FF
:1019C0009A601E4B4FF6FF72DA601C4B00221A61C0
:1019D0001A4B00225A61194B00229A610323FB60C3
:1019E00000233B6101237B610023BB610023FB617A
:1019F00000233B6201237B620023BB620023FB6266
:101A000007F10C0319460D4802F0F9FC0346002BC0
:101A100001D000F085FB00237B600023BB603B1DF1
:101A20001946064802F0F0FA0346002B01D000F0F8
:101A300077FB00BF3037BD4680BD00BF7C00002073
:101A40000000014080B58CB000AF07F10C032422E8
:101A50000021184604F024F93B1D00221A605A6048
:101A6000214B4FF080421A601F4B00225A601E4BE0
:101A700000229A601C4B4FF0FF32DA601A4B0022B2
:101A80001A61194B00229A610323FB6000233B611A
:101A900001237B610023BB610023FB6100233B62C8
:101AA00001237B620023BB620023FB6207F10C036E
:101AB00019460D4802F0A3FC0346002B01D000F0AC
:101AC0002FFB00237B600023BB603B1D19460648AB
:101AD00002F09AFA0346002B01D000F021FB00BF70
:101AE0003037BD4680BD00BFC400002080B58CB03B
:101AF00000AF07F10C0324220021184604F0D0F8AF
:101B00003B1D00221A605A60204B214A1A601F4B6D
:101B100000225A601D4B00229A601C4B4FF6FF7248
:101B2000DA601A4B00221A61184B00229A610323D3
:101B3000FB6000233B6101237B610023BB61002329
:101B4000FB6100233B6201237B620023BB62002315
:101B5000FB6207F10C0319460C4802F050FC0346E7
:101B6000002B01D000F0DCFA00237B600023BB6077
:101B70003B1D1946054802F047FA0346002B01D0E9
:101B800000F0CEFA00BF3037BD4680BD0C0100200A
:101B90000004004080B58EB000AF07F1280300229A
:101BA0001A605A609A60DA6007F1200300221A6016
:101BB0005A603B1D00221A605A609A60DA601A610E
:101BC0005A619A613D4B3E4A1A603C4B53225A601F
:101BD0003A4B00229A60394B40F2E732DA60374BD9
:101BE00000221A61354B00229A61344802F0EEFA65
:101BF0000346002B01D000F093FA4FF48053BB62F0
:101C000007F1280319462D4802F06AFE0346002B0F
:101C100001D000F085FA294802F098FB0346002B1A
:101C200001D000F07DFA00233B6200237B6207F1C4
:101C300020031946214802F0E7F90346002B01D0A2
:101C400000F06EFA60237B600023BB600023FB6022
:101C500000237B613B1D00221946184802F07EFDDF
:101C60000346002B01D000F05BFA3B1D042219460D
:101C7000124802F073FD0346002B01D000F050FA29
:101C80003B1D082219460D4802F068FD0346002B53
:101C900001D000F045FA3B1D0C221946074802F01E
:101CA0005DFD0346002B01D000F03AFA034800F036
:101CB000C5FB00BF3837BD4680BD00BF54010020C2
:101CC0000008004080B58CB000AF07F10C0324225F
:101CD0000021184603F0E4FF3B1D00221A605A6001
:101CE000204B214A1A601F4B00225A601D4B0022D4
:101CF0009A601C4B4FF0FF32DA601A4B00221A61D7
:101D0000184B00229A610323FB6000233B610123EF
:101D10007B610023BB610023FB6100233B62012345
:101D20007B620023BB620023FB6207F10C031946B0
:101D30000C4802F064FB0346002B01D000F0F0F9E0
:101D400000237B600023BB603B1D1946054802F061
:101D50005BF90346002B01D000F0E2F900BF3037F9
:101D6000BD4680BD9C010020000C004080B596B0AF
:101D700000AF07F1480300221A605A609A60DA60E7
:101D800007F1400300221A605A6007F12403002281
:101D90001A605A609A60DA601A615A619A613B1D52
:101DA00020220021184603F07BFF444B444A1A606E
:101DB000424BA7225A60414B00229A603F4B40F2AF
:101DC000E732DA603D4B00221A613C4B00225A6137
:101DD0003A4B00229A61394802F0F8F90346002B89
:101DE00001D000F09DF94FF48053BB6407F1480324
:101DF0001946324802F074FD0346002B01D000F072
:101E00008FF92E4802F0A2FA0346002B01D000F011
:101E100087F900233B6400237B6407F140031946E4
:101E2000264802F0F1F80346002B01D000F078F9C3
:101E300060237B620023BB620023FB6200233B63C1
:101E400000237B630023BB630023FB6307F12403B0
:101E500008221946194802F081FC0346002B01D0E4
:101E600000F05EF907F124030C221946134802F032
:101E700075FC0346002B01D000F052F900237B6073
:101E80000023BB600023FB6000233B6100237B61D8
:101E90004FF40053BB6100233B623B1D19460748CA
:101EA00002F02EF90346002B01D000F039F9034867
:101EB00000F0C4FA00BF5837BD4680BDE4010020E1
:101EC0000004014080B58CB000AF07F12003002270
:101ED0001A605A609A60DA603B1D00221A605A60EC
:101EE0009A60DA601A615A619A612B4B2B4A1A6028
:101EF000294BA7225A60284B00229A60264B40F2B9
:101F0000E732DA60244B00221A61234B00229A61E7
:101F1000214802F05BF90346002B01D000F000F9E4
:101F20004FF480533B6207F1200319461A4802F030
:101F3000D7FC0346002B01D000F0F2F8164802F05F
:101F400005FA0346002B01D000F0EAF860237B601D
:101F50000023BB600023FB6000237B613B1D00224C
:101F600019460D4802F0FAFB0346002B01D000F0A1
:101F7000D7F83B1D04221946074802F0EFFB034641
:101F8000002B01D000F0CCF8034800F057FA00BF56
:101F90003037BD4680BD00BF2C020020004001400C
:101FA00080B500AF114B124A1A60104B4FF4E1326A
:101FB0005A600E4B00229A600C4B0022DA600B4BE9
:101FC00000221A61094B0C225A61084B00229A61C7
:101FD000064B0022DA61054803F05CF80346002B4B
:101FE00001D000F09DF800BF80BD00BF740200204A
:101FF0000048004080B582B000AF00237B600C4BEE
:102000001B6B0B4A43F400131363094B1B6B03F464
:1020100000137B607B68002200210C2000F0E5FDAE
:102020000C2000F0FEFD00BF0837BD4680BD00BF9C
:102030000038024080B58AB000AF07F114030022D7
:102040001A605A609A60DA601A6100233B61314B72
:102050001B6B304A43F0040313632E4B1B6B03F0DE
:1020600004033B613B690023FB602A4B1B6B294A3D
:1020700043F001031363274B1B6B03F00103FB6069
:10208000FB680023BB60234B1B6B224A43F0020317
:102090001363204B1B6B03F00203BB60BB68002380
:1020A0007B601C4B1B6B1B4A43F008031363194BEB
:1020B0001B6B03F008037B607B6800224FF4005128
:1020C000154801F0D5FA00224021144801F0D0FA59
:1020D0004FF400537B610123BB610023FB610023AC
:1020E0003B6207F1140319460B4801F025F9402320
:1020F0007B610123BB610023FB6100233B6207F18D
:1021000014031946054801F017F900BF2837BD46EA
:1021100080BD00BF003802400008024000040240B9
:1021200080B400AF72B600BFFEE7000080B483B099
:1021300000AF00237B60104B5B6C0F4A43F480437D
:1021400053640D4B5B6C03F480437B607B6800231E
:102150003B60094B1B6C084A43F080531364064BE9
:102160001B6C03F080533B603B6800BF0C37BD46DF
:102170005DF8047B704700BF0038024080B590B026
:1021800000AF786007F12C0300221A605A609A6051
:10219000DA601A617B681B68784A934235D1002364
:1021A000BB62774B5B6C764A43F001035364744B1C
:1021B0005B6C03F00103BB62BB6A00237B62704B64
:1021C0001B6B6F4A43F0010313636D4B1B6B03F0F2
:1021D00001037B627B6A4FF44073FB6202233B6323
:1021E00000237B630023BB630123FB6307F12C0304
:1021F0001946644801F0A0F800220221182000F0DE
:10220000F4FC182000F00DFDB3E07B681B68B3F10F
:10221000804F4BD100233B62594B1B6C584A43F013
:1022200001031364564B1B6C03F001033B623B6AD2
:102230000023FB61524B1B6B514A43F001031363B4
:102240004F4B1B6B03F00103FB61FB690023BB6178
:102250004B4B1B6B4A4A43F002031363484B1B6B07
:1022600003F00203BB61BB694FF40043FB6202232E
:102270003B6300237B630023BB630123FB6307F104
:102280002C0319463F4801F057F80823FB6202234C
:102290003B6300237B630023BB630123FB6307F1E4
:1022A0002C031946384801F047F862E07B681B6848
:1022B000364A93422CD100237B61314B1B6C304A50
:1022C00043F0020313642E4B1B6C03F002037B618B
:1022D0007B6900233B612A4B1B6B294A43F00203B5
:1022E0001363274B1B6B03F002033B613B693023F5
:1022F000FB6202233B6300237B630023BB63022357
:10230000FB6307F12C0319461F4801F015F830E074
:102310007B681B681E4A93422BD10023FB60184B3D
:102320001B6C174A43F008031364154B1B6C03F036
:102330000803FB60FB680023BB60114B1B6B104A5A
:1023400043F0010313630E4B1B6B03F00103BB60EF
:10235000BB680323FB6202233B6300237B630023F0
:10236000BB630223FB6307F12C031946054800F009
:10237000E3FF00BF4037BD4680BD00BF0000014005
:102380000038024000000240000402400004004007
:10239000000C004080B586B000AF78607B681B6899
:1023A000224A93420ED100237B61214B1B6C204AB1
:1023B00043F0040313641E4B1B6C03F004037B61A6
:1023C0007B692EE07B681B681A4A93420ED100237A
:1023D0003B61174B5B6C164A43F002035364144B8A
:1023E0005B6C03F002033B613B691AE07B681B688E
:1023F000114A934215D10023FB600D4B5B6C0C4AD4
:1024000043F4803353640A4B5B6C03F48033FB600A
:10241000FB6800220221182000F0E7FB182000F0E2
:1024200000FC00BF1837BD4680BD00BF000800405B
:1024300000380240000401400040014080B58AB0ED
:1024400000AF786007F1140300221A605A609A60A6
:10245000DA601A617B681B68374A93421FD10023F8
:102460003B61364B1B6B354A43F008031363334B18
:102470001B6B03F008033B613B694FF470437B61C6
:102480000223BB610023FB6100233B6202237B62CA
:1024900007F1140319462A4800F04EFF47E07B6815
:1024A0001B68284A93421FD10023FB60234B1B6B00
:1024B000224A43F004031363204B1B6B03F0040315
:1024C000FB60FB684FF440737B610223BB61002318
:1024D000FB6100233B6203237B6207F1140319466F
:1024E000194800F029FF22E07B681B68174A9342D5
:1024F0001DD10023BB60114B1B6B104A43F001033D
:1025000013630E4B1B6B03F00103BB60BB680C2312
:102510007B610223BB610023FB6100233B62032339
:102520007B6207F114031946094800F005FF00BF5C
:102530002837BD4680BD00BF00080040003802407B
:10254000000C02400004014000080240004001402D
:102550000000024080B58AB000AF786007F1140334
:1025600000221A605A609A60DA601A617B681B6800
:10257000314A93425BD100233B61304B1B6C2F4AA5
:1025800043F4802313642D4B1B6C03F480233B61C5
:102590003B690023FB60294B1B6B284A43F0020375
:1025A0001363264B1B6B03F00203FB60FB684FF4C5
:1025B00040637B610223BB610023FB6103233B6219
:1025C00007237B6207F1140319461D4800F0B4FE8F
:1025D0001C4B1D4A1A601B4B4FF000625A60194B8E
:1025E00000229A60174B0022DA60164B4FF480628B
:1025F0001A61144B00225A61124B00229A61114B4E
:102600000022DA610F4B4FF480321A620D4B002228
:102610005A620C4800F020FB0346002B01D0FFF764
:102620007FFD7B68074A9A63064A7B68936300BF15
:102630002837BD4680BD00BF00480040003802403A
:1026400000040240B80200202860024080B400AFBD
:10265000FEE780B400AFFEE780B400AFFEE780B4D1
:1026600000AFFEE780B400AFFEE780B400AF00BF6C
:10267000BD465DF8047B704780B400AF00BFBD4627
:102680005DF8047B704780B400AF00BFBD465DF8C5
:10269000047B704780B500AF03F0B4FA00BF80BD83
:1026A00080B500AF024800F0DDFB00BF80BD00BF79
:1026B000B802002080B500AF034801F046FF034890
:1026C00001F043FF00BF80BD7C0000202C020020F1
:1026D00080B586B000AF7860144A154BD31A7B6181
:1026E0007B693B61134B1B68002B02D1114B124AD3
:1026F0001A60104B1A687B6813443A699A4207D2F1
:1027000003F0FAFA03460C221A604FF0FF3309E097
:10271000084B1B68FB60074B1A687B681344054A2B
:102720001360FB6818461837BD4680BD00000220C4
:1027300000040000440700209808002080B400AF87
:10274000064BD3F88830054A43F47003C2F888304A
:1027500000BFBD465DF8047B704700BF00ED00E0A0
:10276000DFF834D00D480E490E4A002302E0D45859
:10277000C4500433C4188C42F9D30B4A0B4C0023C9
:1027800001E013600432A242FBD3FFF7D7FF03F04E
:10279000B9FAFEF7A3FF70470000022000000020F6
:1027A0005C000020986A0008600000209408002067
:1027B000FEE780B586B000AF786187ED040AC7ED0B
:1027C000030A87ED021AC7ED011A7B69D7ED011ADA
:1027D00097ED021AD7ED030A97ED040A1846FEF7A3
:1027E00003FD00BF1837BD4680BD80B586B000AF81
:1027F000786187ED040AC7ED030A87ED021AC7ED79
:10280000011A7B694833D7ED011A97ED021AD7ED0B
:10281000030A97ED040A1846FEF7E6FC00BF1837D6
:10282000BD4680BD80B584B000AFF86087ED020A78
:10283000C7ED010AFB684833DFED090A9FED090A7D
:102840001846FEF70EFDFB68D7ED010A97ED020A68
:102850001846FEF706FD00BF1037BD4680BD00BF1D
:1028600000004843000048C380B584B000AFF86062
:1028700087ED020AC7ED010AFB689FED080A1846BA
:10288000FEF717FDFB68D7ED010A97ED020A18461F
:10289000FEF7FBFC00BF1037BD4680BD0000000006
:1028A00080B483B000AF786087ED000A7B6893ED59
:1028B0002A7AD7ED007A67EE277A7B68C3ED267A0D
:1028C00000BF0C37BD465DF8047B704780B582B011
:1028D00000AF78607B6893ED267A7B68D3ED277A2A
:1028E000B4EE677AF1EE10FA0ED07B6848331846E2
:1028F000FEF799FC7B681846FEF795FC7B68D3F8D9
:1029000098207B68C3F89C207B68D3F890007B6894
:1029100003F1AC017B6803F1B0027B68D3ED237A4D
:10292000B0EE670AFEF70EFC7B6893ED267A7B68B3
:10293000D3ED2B7A77EE677A7B68C3ED287A7B68D4
:1029400003F148027B68D3ED287AB0EE670A10469F
:10295000FEF7BEFC7A687B6893ED207A7B68D3ED46
:102960002C7A77EE677AB0EE670A1046FEF7B0FC75
:102970007B68D3ED2B7AF0EEE77A9FED107AF4EED8
:10298000C77AF1EE10FA0DD57B68D3F890207B68FA
:10299000D3ED0E7AFDEEE77A17EE901A1046FEF7A9
:1029A0001FFB06E07B68D3F8903000211846FEF745
:1029B00017FB00BF0837BD4680BD00BF0080BB4489
:1029C00080B485B000AFF860B96087ED010A1346A6
:1029D0007B80FB687A68C3F8A820FB680022A3F814
:1029E0009420FB684FF00002C3F89820FB684FF07A
:1029F0000002C3F89C20FB684FF00002C3F8A0203F
:102A0000FB684FF00002C3F8A420FB684FF00002FF
:102A1000C3F8AC20FB684FF00002C3F8B020FB689D
:102A2000BA68C3F8902000BF1437BD465DF8047B38
:102A30007047000080B485B000AF78607B6803F019
:102A40000703FB600C4BDB68BB60BA684FF6FF0303
:102A50001340BB60FB681A02BB68134343F0BF63BB
:102A600043F40033BB60044ABB68D36000BF143733
:102A7000BD465DF8047B704700ED00E080B400AF18
:102A8000044BDB681B0A03F007031846BD465DF8DC
:102A9000047B704700ED00E080B483B000AF0346D4
:102AA000FB7197F90730002B0BDBFB7903F01F025A
:102AB000074997F907305B09012000FA02F241F853
:102AC000232000BF0C37BD465DF8047B704700BF74
:102AD00000E100E080B483B000AF03463960FB71D1
:102AE00097F90730002B0ADB3B68DAB20C4997F9FB
:102AF00007301201D2B20B4483F800230AE03B688E
:102B0000DAB20849FB7903F00F03043B1201D2B299
:102B10000B441A7600BF0C37BD465DF8047B704746
:102B200000E100E000ED00E080B489B000AFF860A3
:102B3000B9607A60FB6803F00703FB61FB69C3F1CE
:102B40000703042B28BF0423BB61FB690433062B56
:102B500002D9FB69033B00E000237B614FF0FF32A9
:102B6000BB6902FA03F3DA43BB681A407B699A40F7
:102B70004FF0FF317B6901FA03F3D9437B680B40C7
:102B8000134318462437BD465DF8047B70470000A8
:102B900080B582B000AF78607B68013BB3F1807F85
:102BA00001D301230FE00A4A7B68013B53600F21E8
:102BB0004FF0FF30FFF78EFF054B00229A60044B69
:102BC00007221A60002318460837BD4680BD00BFA3
:102BD00010E000E080B582B000AF78607868FFF761
:102BE00029FF00BF0837BD4680BD80B586B000AF65
:102BF0000346B9607A60FB7300237B61FFF73EFFF9
:102C000078617A68B9687869FFF78EFF024697F9AC
:102C10000F3011461846FFF75DFF00BF1837BD465D
:102C200080BD80B582B000AF0346FB7197F90730D5
:102C30001846FFF731FF00BF0837BD4680BD80B59D
:102C400082B000AF78607868FFF7A2FF03461846AD
:102C50000837BD4680BD000080B586B000AF786003
:102C600000237B6102F0E2FF38617B68002B01D119
:102C7000012399E07B68022283F835207B680022DB
:102C800083F834207B681B681A687B681B6822F015
:102C900001021A600FE002F0C9FF02463B69D31A35
:102CA000052B08D97B6820225A657B68032283F8AC
:102CB0003520032378E07B681B681B6803F0010361
:102CC000002BE8D17B681B681B687B617A69384BF5
:102CD00013407B617B685A687B689B681A437B68FA
:102CE000DB681A437B681B691A437B685B691A437C
:102CF0007B689B691A437B68DB691A437B681B6AA4
:102D000013437A6913437B617B685B6A042B07D1A9
:102D10007B68DA6A7B681B6B13437A6913437B61B8
:102D20007B681B687A691A607B681B685B697B61DA
:102D30007B6923F007037B617B685B6A7A691343D5
:102D40007B617B685B6A042B17D17B689B6A7A691D
:102D500013437B617B68DB6A002B0ED0786800F040
:102D60006FFA0346002B08D07B6840225A657B68C7
:102D7000012283F83520012316E07B681B687A69FD
:102D80005A61786800F026FA0346FB607B68DB6DC9
:102D90003F229A40FB689A607B6800225A657B68F4
:102DA000012283F83520002318461837BD4680BD20
:102DB0003F8010F080B586B000AFF860B9607A60EF
:102DC0003B600023FB75FB689B6D3B61FB6893F8E0
:102DD0003430012B01D1022340E0FB68012283F84B
:102DE0003420FB6893F83530DBB2012B2FD1FB6820
:102DF000022283F83520FB6800225A653B687A6816
:102E0000B968F86800F0B8F9FB68DB6D3F229A40BA
:102E10003B699A60FB681B681A68FB681B6842F094
:102E200016021A60FB681B6C002B07D0FB681B683E
:102E30001A68FB681B6842F008021A60FB681B688E
:102E40001A68FB681B6842F001021A6005E0FB6823
:102E5000002283F834200223FB75FB7D18461837C7
:102E6000BD4680BD80B586B000AF78600023BB60F2
:102E70008E4B1B688E4AA2FB03239B0A7B617B68F7
:102E80009B6D3B613B691B68FB607B68DB6D0822C7
:102E90009A40FB681340002B1AD07B681B681B68A4
:102EA00003F00403002B13D07B681B681A687B684F
:102EB0001B6822F004021A607B68DB6D08229A40CE
:102EC0003B699A607B685B6D43F001027B685A65E1
:102ED0007B68DB6D01229A40FB681340002B12D007
:102EE0007B681B685B6903F08003002B0BD07B6859
:102EF000DB6D01229A403B699A607B685B6D43F011
:102F000002027B685A657B68DB6D04229A40FB688D
:102F10001340002B12D07B681B681B6803F0020370
:102F2000002B0BD07B68DB6D04229A403B699A60D2
:102F30007B685B6D43F004027B685A657B68DB6DE0
:102F400010229A40FB681340002B43D07B681B681B
:102F50001B6803F00803002B3CD07B68DB6D10225C
:102F60009A403B699A607B681B681B6803F4802366
:102F7000002B18D07B681B681B6803F40023002B10
:102F800008D17B681B6C002B24D07B681B6C786895
:102F900098471FE07B689B6C002B1BD07B689B6C69
:102FA0007868984716E07B681B681B6803F4807399
:102FB000002B07D17B681B681A687B681B6822F0AE
:102FC00008021A607B681B6C002B03D07B681B6CAB
:102FD000786898477B68DB6D20229A40FB68134035
:102FE000002B00F08F807B681B681B6803F01003C8
:102FF000002B00F087807B68DB6D20229A403B69C4
:103000009A607B6893F83530DBB2052B36D17B684C
:103010001B681A687B681B6822F016021A607B68BE
:103020001B685A697B681B6822F080025A617B68C2
:103030001B6C002B03D17B689B6C002B07D07B683B
:103040001B681A687B681B6822F008021A607B689C
:10305000DB6D3F229A403B699A607B68012283F8CE
:1030600035207B68002283F834207B681B6D002BA1
:103070007ED07B681B6D7868984779E07B681B6819
:103080001B6803F48023002B1DD07B681B681B6822
:1030900003F40023002B0DD17B685B6C002B31D037
:1030A0007B685B6C786898472CE000BF00000020CC
:1030B000B5814E1B7B68DB6B002B23D07B68DB6B01
:1030C000786898471EE07B681B681B6803F4807370
:1030D000002B0FD17B681B681A687B681B6822F085
:1030E00010021A607B68012283F835207B68002279
:1030F00083F834207B68DB6B002B03D07B68DB6BB1
:10310000786898477B685B6D002B32D07B685B6D7D
:1031100003F00103002B22D07B68052283F83520C1
:103120007B681B681A687B681B6822F001021A60C2
:10313000BB680133BB607A699A4207D37B681B681E
:103140001B6803F00103002BF2D100E000BF7B6895
:10315000012283F835207B68002283F834207B68C5
:10316000DB6C002B05D07B68DB6C7868984700E04F
:1031700000BF1837BD4680BD80B485B000AFF86091
:10318000B9607A603B60FB681B681A68FB681B6863
:1031900022F480221A60FB681B683A685A60FB6858
:1031A0009B68402B08D1FB681B687A689A60FB68B3
:1031B0001B68BA68DA6007E0FB681B68BA689A6047
:1031C000FB681B687A68DA6000BF1437BD465DF89B
:1031D000047B704780B485B000AF78607B681B6863
:1031E000DBB2103B144AA2FB03231B09FB60134A0A
:1031F000FB6813441B781A467B68DA65FB68032B6F
:1032000009D97B681B6823F47F7323F003031A1D1D
:103210007B689A6507E07B681B6823F47F7323F063
:1032200003037A6893657B689B6D18461437BD4627
:103230005DF8047B704700BFABAAAAAA60690008CA
:1032400080B485B000AF78600023FB737B689B6A15
:10325000BB607B689B69002B1FD1BB68032B56D8D2
:1032600001A252F823F000BF793200088B32000827
:10327000793200080F3300087B68DB6A03F0807343
:10328000002B46D00123FB7343E07B68DB6AB3F17C
:10329000C07F40D10123FB733DE07B689B69B3F5A0
:1032A000005F21D1BB68032B37D801A252F823F06D
:1032B000C1320008C7320008C1320008D932000804
:1032C0000123FB7330E07B68DB6A03F08073002B23
:1032D00025D00123FB7322E07B68DB6AB3F1C07F5A
:1032E0001FD10123FB731CE0BB68022B03D9BB6811
:1032F000032B03D018E00123FB7315E07B68DB6A26
:1033000003F08073002B0ED00123FB730BE000BF92
:103310000AE000BF08E000BF06E000BF04E000BF15
:1033200002E000BF00E000BFFB7B18461437BD463B
:103330005DF8047B704700BF80B489B000AF78604F
:10334000396000237B6100233B610023BB610023C4
:10335000FB616BE10122FB6902FA03F37B613B68CD
:103360001B687A6913403B613A697B699A4240F075
:103370005A813B685B6803F00303012B05D03B686F
:103380005B6803F00303022B30D17B689B68BB6151
:10339000FB695B00032202FA03F3DB43BA691340C3
:1033A000BB613B68DA68FB695B0002FA03F3BA6948
:1033B0001343BB617B68BA699A607B685B68BB61D9
:1033C0000122FB6902FA03F3DB43BA691340BB61D4
:1033D0003B685B681B0903F00102FB6902FA03F317
:1033E000BA691343BB617B68BA695A603B685B6822
:1033F00003F00303032B17D07B68DB68BB61FB6919
:103400005B00032202FA03F3DB43BA691340BB619A
:103410003B689A68FB695B0002FA03F3BA691343DD
:10342000BB617B68BA69DA603B685B6803F00303E1
:10343000022B23D1FB69DA087B68083253F822306B
:10344000BB61FB6903F007039B000F2202FA03F341
:10345000DB43BA691340BB613B681A69FB6903F03F
:1034600007039B0002FA03F3BA691343BB61FB69CC
:10347000DA087B680832B96943F822107B681B6858
:10348000BB61FB695B00032202FA03F3DB43BA6909
:103490001340BB613B685B6803F00302FB695B00A0
:1034A00002FA03F3BA691343BB617B68BA691A6015
:1034B0003B685B6803F44033002B00F0B4800023CA
:1034C000FB60604B5B6C5F4A43F4804353645D4B2D
:1034D0005B6C03F48043FB60FB685B4AFB699B0801
:1034E000023352F82330BB61FB6903F003039B00F6
:1034F0000F2202FA03F3DB43BA691340BB617B6816
:10350000524A93422BD07B68514A934225D07B6824
:10351000504A93421FD07B684F4A934219D07B6830
:103520004E4A934213D07B684D4A93420DD07B683C
:103530004C4A934207D07B684B4A934201D1072300
:103540000EE008230CE006230AE0052308E004232C
:1035500006E0032304E0022302E0012300E000234D
:10356000FA6902F0030292009340BA691343BB6107
:103570003549FB699B080233BA6941F823203B4B6C
:103580009B68BB613B69DB43BA691340BB613B6825
:103590005B6803F48013002B03D0BA693B691343C3
:1035A000BB61324ABB699360304BDB68BB613B69EE
:1035B000DB43BA691340BB613B685B6803F40013EB
:1035C000002B03D0BA693B691343BB61274ABB692F
:1035D000D360264B5B68BB613B69DB43BA69134030
:1035E000BB613B685B6803F40033002B03D0BA690E
:1035F0003B691343BB611D4ABB6953601B4B1B688E
:10360000BB613B69DB43BA691340BB613B685B68E4
:1036100003F48033002B03D0BA693B691343BB61C9
:10362000124ABB691360FB690133FB61FB690F2B15
:103630007FF690AE00BF00BF2437BD465DF8047B27
:10364000704700BF003802400038014000000240CF
:103650000004024000080240000C0240001002403A
:103660000014024000180240001C0240003C0140CF
:1036700080B483B000AF78600B467B8013467B70CC
:103680007B78002B03D07A887B689A6103E07B8883
:103690001A047B689A6100BF0C37BD465DF8047B55
:1036A000704780B485B000AF78600B467B807B6844
:1036B0005B69FB607A88FB6813401A04FB68D94396
:1036C0007B880B401A437B689A6100BF1437BD4664
:1036D0005DF8047B7047000080B586B000AF78606D
:1036E0007B68002B01D1012367E27B681B6803F034
:1036F0000103002B75D0884B9B6803F00C03042B4F
:103700000CD0854B9B6803F00C03082B12D1824B25
:103710005B6803F48003B3F5800F0BD17E4B1B680D
:1037200003F40033002B5BD07B685B68002B57D120
:10373000012342E27B685B68B3F5803F06D1764B9C
:103740001B68754A43F4803313601DE07B685B6837
:10375000B3F5A02F0CD1704B1B686F4A43F4802344
:1037600013606D4B1B686C4A43F4803313600BE0AD
:10377000694B1B68684A23F480331360664B1B68EF
:10378000654A23F4802313607B685B68002B13D0A9
:1037900002F04CFA386108E002F048FA02463B6950
:1037A000D31A642B01D9032307E25B4B1B6803F494
:1037B0000033002BF0D014E002F038FA386108E052
:1037C00002F034FA02463B69D31A642B01D9032371
:1037D000F3E1514B1B6803F40033002BF0D100E000
:1037E00000BF7B681B6803F00203002B63D04A4BC9
:1037F0009B6803F00C03002B0BD0474B9B6803F036
:103800000C03082B1CD1444B5B6803F48003002B92
:1038100016D1414B1B6803F00203002B05D07B68D7
:10382000DB68012B01D00123C7E13B4B1B6823F070
:10383000F8027B681B69DB00374913430B603AE0F1
:103840007B68DB68002B20D0344B01221A6002F029
:10385000EDF9386108E002F0E9F902463B69D31A54
:10386000022B01D90323A8E12B4B1B6803F00203B1
:10387000002BF0D0284B1B6823F0F8027B681B69F3
:10388000DB00254913430B6015E0244B00221A602E
:1038900002F0CCF9386108E002F0C8F902463B6951
:1038A000D31A022B01D9032387E11B4B1B6803F0BA
:1038B0000203002BF0D17B681B6803F00803002B88
:1038C00036D07B685B69002B16D0154B01221A603D
:1038D00002F0ACF9386108E002F0A8F902463B6951
:1038E000D31A022B01D9032367E10B4B5B6F03F063
:1038F0000203002BF0D01BE0094B00221A6002F0FB
:1039000095F938610EE002F091F902463B69D31A4D
:10391000022B07D9032350E1003802400000474240
:10392000800E4742884B5B6F03F00203002BEAD105
:103930007B681B6803F00403002B00F097800023D2
:10394000FB75814B1B6C03F08053002B0FD10023C0
:10395000BB607D4B1B6C7C4A43F0805313647A4BF5
:103960001B6C03F08053BB60BB680123FB75774B76
:103970001B6803F48073002B18D1744B1B68734AC7
:1039800043F48073136002F051F9386108E002F0EB
:103990004DF902463B69D31A022B01D903230CE1EE
:1039A0006A4B1B6803F48073002BF0D07B689B6824
:1039B000012B06D1644B1B6F634A43F0010313676D
:1039C0001CE07B689B68052B0CD15F4B1B6F5E4A2C
:1039D00043F0040313675C4B1B6F5B4A43F0010326
:1039E00013670BE0584B1B6F574A23F00103136713
:1039F000554B1B6F544A23F0040313677B689B6885
:103A0000002B15D002F012F938610AE002F00EF92D
:103A100002463B69D31A41F28832934201D903230B
:103A2000CBE0494B1B6F03F00203002BEED014E0F8
:103A300002F0FCF838610AE002F0F8F802463B694F
:103A4000D31A41F28832934201D90323B5E03E4BA9
:103A50001B6F03F00203002BEED1FB7D012B05D180
:103A6000394B1B6C384A23F0805313647B689B6985
:103A7000002B00F0A180344B9B6803F00C03082B53
:103A80005CD07B689B69022B41D1314B00221A60CC
:103A900002F0CCF8386108E002F0C8F802463B6951
:103AA000D31A022B01D9032387E0274B1B6803F0AD
:103AB0000073002BF0D17B68DA697B681B6A1A43BC
:103AC0007B685B6A9B011A437B689B6A5B08013BCE
:103AD0001B041A437B68DB6A1B061B4913434B60BC
:103AE0001B4B01221A6002F0A1F8386108E002F0D5
:103AF0009DF802463B69D31A022B01D903235CE0EF
:103B0000114B1B6803F00073002BF0D054E0104BF6
:103B100000221A6002F08AF8386108E002F086F8A4
:103B200002463B69D31A022B01D9032345E0064B19
:103B30001B6803F00073002BF0D13DE07B689B69AC
:103B4000012B07D1012338E000380240007000400B
:103B5000600047421B4B5B68FB607B689B69012BE5
:103B600028D0FB6803F480027B68DB699A4221D18C
:103B7000FB6803F03F027B681B6A9A421AD1FA681D
:103B800047F6C07313407A68526A9201934211D18A
:103B9000FB6803F440327B689B6A5B08013B1B04B3
:103BA0009A4207D1FB6803F070627B68DB6A1B06F0
:103BB0009A4201D0012300E0002318461837BD4681
:103BC00080BD00BF0038024080B584B000AF78608F
:103BD00039607B68002B01D10123CCE0684B1B6866
:103BE00003F007033A689A420CD9654B3A68D2B29F
:103BF0001A70634B1B6803F007033A689A4201D0BE
:103C00000123B8E07B681B6803F00203002B20D07F
:103C10007B681B6803F00403002B05D0594B9B689D
:103C2000584A43F4E05393607B681B6803F0080331
:103C3000002B05D0534B9B68524A43F4604393607A
:103C4000504B9B6823F0F0027B689B684D491343FF
:103C50008B607B681B6803F00103002B44D07B68FA
:103C60005B68012B07D1474B1B6803F40033002B23
:103C700019D101237FE07B685B68022B03D07B684E
:103C80005B68032B07D13F4B1B6803F00073002BCD
:103C900009D101236FE03B4B1B6803F00203002BAB
:103CA00001D1012367E0374B9B6823F003027B6857
:103CB0005B68344913438B6001F0B8FFF8600AE099
:103CC00001F0B4FF0246FB68D31A41F288329342F6
:103CD00001D903234FE02B4B9B6803F00C027B6858
:103CE0005B689B009A42EBD1254B1B6803F00703EE
:103CF0003A689A420CD2224B3A68D2B21A70204BE0
:103D00001B6803F007033A689A4201D0012332E0AE
:103D10007B681B6803F00403002B08D0194B9B68D9
:103D200023F4E0527B68DB68164913438B607B68A1
:103D30001B6803F00803002B09D0124B9B6823F487
:103D400060427B681B69DB000E4913438B6000F007
:103D500021F802460B4B9B681B0903F00F030A492D
:103D6000CB5C22FA03F3094A1360094B1B6818461F
:103D700001F018FF002318461037BD4680BD00BF74
:103D8000003C024000380240486900080000002062
:103D9000040000202DE9B04F94B000AF00237B64F5
:103DA0000023FB6400233B640023BB64794B9B68C6
:103DB00003F00C03082B0DD0082B00F2E180002B40
:103DC00002D0042B03D0DBE0734BBB64DBE0734B0E
:103DD000BB64D8E06F4B5B6803F03F037B646D4BC3
:103DE0005B6803F48003002B63D06A4B5B689B091C
:103DF0000022BB63FA63BB6BC3F308033B6300237E
:103E00007B63D7E90C4522462B464FF000004FF06C
:103E10000001590141EAD261500102460B46214698
:103E2000511A3961294663EB01037B614FF00002AF
:103E30004FF00003D7E904AB59468B01514643EAE2
:103E4000916351468A015146B2EB0108594663EB32
:103E500001094FF000024FF000034FEAC90343EAA3
:103E600058734FEAC80290469946234618EB03035D
:103E7000BB602B4649EB0303FB604FF000024FF0A1
:103E80000003D7E9024529464B02214643EAD153B4
:103E900021464A02104619467B6C0022BB62FA6238
:103EA000D7E90A23FCF7C0FE02460B461346FB6423
:103EB00058E0384B5B689B09002218461146C0F356
:103EC00008033B6200237B62D7E9088942464B46E0
:103ED0004FF000004FF00001590141EAD26150015A
:103EE00002460B464146B2EB010A494663EB010B21
:103EF0004FF000024FF000034FEA8B1343EA9A633E
:103F00004FEA8A12B2EB0A0463EB0B054FF0000292
:103F10004FF00003EB0043EA5473E20014461D46E1
:103F20004346E3183B604B4645EB03037B604FF091
:103F300000024FF00003D7E9004529468B022146D5
:103F400043EA915321468A02104619467B6C0022AF
:103F5000BB61FA61D7E90623FCF766FE02460B4611
:103F60001346FB640B4B5B681B0C03F0030301332C
:103F70005B003B64FA6C3B6CB2FBF3F3BB6402E0A6
:103F8000054BBB6400BFBB6C18465037BD46BDE84F
:103F9000B08F00BF003802400024F40000127A0005
:103FA00080B400AF034B1B681846BD465DF8047B28
:103FB000704700BF0000002080B500AFFFF7F0FFA2
:103FC0000246054B9B689B0A03F007030349CB5C41
:103FD00022FA03F3184680BD0038024058690008F1
:103FE00080B500AFFFF7DCFF0246054B9B685B0B1B
:103FF00003F007030349CB5C22FA03F3184680BDA4
:10400000003802405869000880B485B000AF78607D
:1040100039607B6893F83C30012B01D102235AE0D0
:104020007B68012283F83C207B68022283F83D20D4
:104030007B681B685B68FB607B681B689B68BB6078
:10404000FB6823F07003FB603B681B68FA6813434E
:10405000FB607B681B68FA685A607B681B68214AB2
:10406000934222D07B681B68B3F1804F1DD07B68E0
:104070001B681D4A934218D07B681B681B4A9342F9
:1040800013D07B681B681A4A93420ED07B681B686A
:10409000184A934209D07B681B68174A934204D0A0
:1040A0007B681B68154A93420CD1BB6823F08003E0
:1040B000BB603B685B68BA681343BB607B681B6886
:1040C000BA689A607B68012283F83D207B680022F1
:1040D00083F83C20002318461437BD465DF8047B66
:1040E000704700BF0000014000040040000800408D
:1040F000000C004000040140004001400018004056
:1041000080B485B000AF786039600023FB607B68C5
:1041100093F83C30012B01D102233DE07B68012262
:1041200083F83C20FB6823F0FF023B68DB68134305
:10413000FB60FB6823F440723B689B681343FB60A1
:10414000FB6823F480623B685B681343FB60FB6899
:1041500023F400623B681B681343FB60FB6823F495
:1041600080523B681B691343FB60FB6823F40052D9
:104170003B685B691343FB60FB6823F480423B6848
:10418000DB691343FB607B681B68FA685A647B68D1
:10419000002283F83C20002318461437BD465DF802
:1041A000047B704780B483B000AF786000BF0C37E9
:1041B000BD465DF8047B704780B483B000AF786083
:1041C00000BF0C37BD465DF8047B704780B582B0F8
:1041D00000AF78607B68002B01D1012341E07B6850
:1041E00093F83D30DBB2002B06D17B68002283F8C8
:1041F0003C207868FEF7CEF87B68022283F83D20E9
:104200007B681A687B6804331946104600F058FC36
:104210007B68012283F846207B68012283F83E20D8
:104220007B68012283F83F207B68012283F84020CD
:104230007B68012283F841207B68012283F84220B9
:104240007B68012283F843207B68012283F84420A5
:104250007B68012283F845207B68012283F83D209A
:10426000002318460837BD4680BD000080B485B0E5
:1042700000AF78607B6893F83D30DBB2012B01D052
:1042800001234EE07B68022283F83D207B681B6897
:10429000DA687B681B6842F00102DA607B681B68A1
:1042A000234A934222D07B681B68B3F1804F1DD014
:1042B0007B681B681F4A934218D07B681B681E4AA4
:1042C000934213D07B681B681C4A93420ED07B68D4
:1042D0001B681B4A934209D07B681B68194A9342AA
:1042E00004D07B681B68184A934211D17B681B6815
:1042F0009B6803F00703FB60FB68062B10D07B680C
:104300001B681A687B681B6842F001021A6007E0AC
:104310007B681B681A687B681B6842F001021A60A0
:10432000002318461437BD465DF8047B704700BF74
:10433000000001400004004000080040000C004064
:1043400000040140004001400018004080B582B0E8
:1043500000AF78607B68002B01D1012341E07B68CE
:1043600093F83D30DBB2002B06D17B68002283F846
:104370003C20786800F039F87B68022283F83D2001
:104380007B681A687B6804331946104600F098FB76
:104390007B68012283F846207B68012283F83E2057
:1043A0007B68012283F83F207B68012283F840204C
:1043B0007B68012283F841207B68012283F8422038
:1043C0007B68012283F843207B68012283F8442024
:1043D0007B68012283F845207B68012283F83D2019
:1043E000002318460837BD4680BD80B483B000AFB7
:1043F000786000BF0C37BD465DF8047B704780B520
:1044000086B000AF786039607B68002B01D1012352
:1044100097E07B6893F83D30DBB2002B06D17B68D8
:10442000002283F83C207868FDF7A8FE7B68022212
:1044300083F83D207B681B689B687A68126823F4C8
:10444000804323F0070393607B681A687B6804331A
:104450001946104600F034FB7B681B689B687B6143
:104460007B681B689B693B617B681B681B6AFB6000
:104470003B681B687A6913437B613B6923F4407393
:1044800023F003033B613B689A683B689B691B020E
:1044900013433A6913433B613B6923F4406323F0C0
:1044A0000C033B613B6923F4704323F0F0033B6151
:1044B0003B68DA683B68DB691B0213433A691343C4
:1044C0003B613B681B691A013B681B6A1B03134372
:1044D0003A6913433B61FB6823F02203FB60FB68EE
:1044E00023F08803FB603B685A683B685B691B01EB
:1044F0001343FA681343FB607B681B687A699A6010
:104500007B681B683A699A617B681B68FA681A6263
:104510007B68012283F846207B68012283F83E20D5
:104520007B68012283F83F207B68012283F84220C8
:104530007B68012283F843207B68012283F83D20B9
:10454000002318461837BD4680BD80B582B000AF45
:1045500078607B681B681B6903F00203022B22D181
:104560007B681B68DB6803F00203022B1BD17B68AE
:104570001B686FF002021A617B6801221A777B6860
:104580001B689B6903F00303002B03D0786800F0DD
:1045900078FA05E0786800F06AFA786800F07BFA4B
:1045A0007B6800221A777B681B681B6903F0040391
:1045B000042B22D17B681B68DB6803F00403042B07
:1045C0001BD17B681B686FF004021A617B680222B2
:1045D0001A777B681B689B6903F44073002B03D038
:1045E000786800F04EFA05E0786800F040FA7868E4
:1045F00000F051FA7B6800221A777B681B681B6900
:1046000003F00803082B22D17B681B68DB6803F0EA
:104610000803082B1BD17B681B686FF008021A6126
:104620007B6804221A777B681B68DB6903F003034D
:10463000002B03D0786800F024FA05E0786800F0D9
:1046400016FA786800F027FA7B6800221A777B68F0
:104650001B681B6903F01003102B22D17B681B68B9
:10466000DB6803F01003102B1BD17B681B686FF015
:1046700010021A617B6808221A777B681B68DB6965
:1046800003F44073002B03D0786800F0FAF905E0DA
:10469000786800F0ECF9786800F0FDF97B6800229A
:1046A0001A777B681B681B6903F00103012B0ED18D
:1046B0007B681B68DB6803F00103012B07D17B6873
:1046C0001B686FF001021A617868FCF7BBFF7B681A
:1046D0001B681B6903F08003802B0ED17B681B686D
:1046E000DB6803F08003802B07D17B681B686FF0C9
:1046F00080021A617868FFF75FFD7B681B681B69A1
:1047000003F04003402B0ED17B681B68DB6803F08D
:104710004003402B07D17B681B686FF040021A6191
:10472000786800F0C2F97B681B681B6903F02003FE
:10473000202B0ED17B681B68DB6803F02003202B45
:1047400007D17B681B686FF020021A617868FFF759
:1047500029FD00BF0837BD4680BD000080B586B08A
:1047600000AFF860B9607A600023FB75FB6893F8CE
:104770003C30012B01D10223AEE0FB68012283F81B
:104780003C207B680C2B00F29F8001A252F823F0A2
:10479000C5470008C9480008C9480008C9480008BA
:1047A00005480008C9480008C9480008C948000869
:1047B00047480008C9480008C9480008C948000817
:1047C00087480008FB681B68B968184600F018FAAB
:1047D000FB681B689A69FB681B6842F008029A61D3
:1047E000FB681B689A69FB681B6822F004029A61E7
:1047F000FB681B689969BB681A69FB681B680A43F8
:104800009A6164E0FB681B68B968184600F068FAB2
:10481000FB681B689A69FB681B6842F400629A6136
:10482000FB681B689A69FB681B6822F480629A61C6
:10483000FB681B689969BB681B691A02FB681B68E7
:104840000A439A6143E0FB681B68B968184600F0A8
:10485000BDFAFB681B68DA69FB681B6842F0080256
:10486000DA61FB681B68DA69FB681B6822F00402E6
:10487000DA61FB681B68D969BB681A69FB681B6849
:104880000A43DA6123E0FB681B68B968184600F048
:1048900011FBFB681B68DA69FB681B6842F4006265
:1048A000DA61FB681B68DA69FB681B6822F48062C6
:1048B000DA61FB681B68D969BB681B691A02FB686F
:1048C0001B680A43DA6102E00123FB7500BFFB6845
:1048D000002283F83C20FB7D18461837BD4680BD7A
:1048E00080B584B000AF786039600023FB737B68CB
:1048F00093F83C30012B01D10223B4E07B68012204
:1049000083F83C207B68022283F83D207B681B688B
:104910009B68BB60BB6823F07703BB60BB6823F474
:104920007F43BB607B681B68BA689A603B681B6802
:10493000B3F5005F3ED0B3F5005F00F28780B3F5BA
:10494000805F00F08680B3F5805F7FD8702B1AD02F
:10495000702B7BD8602B50D0602B77D8502B3CD05D
:10496000502B73D8402B58D0402B6FD8302B64D0AD
:10497000302B6BD8202B60D0202B67D8002B5CD03D
:10498000102B5AD062E07B6818683B6899683B68D6
:104990005A683B68DB6800F05DFB7B681B689B68BE
:1049A000BB60BB6843F07703BB607B681B68BA6879
:1049B0009A604FE07B6818683B6899683B685A6862
:1049C0003B68DB6800F046FB7B681B689A687B6885
:1049D0001B6842F480429A603CE07B6818683B6840
:1049E00059683B68DB681A4600F0BAFA7B681B68B6
:1049F0005021184600F013FB2CE07B6818683B68D8
:104A000059683B68DB681A4600F0D9FA7B681B6876
:104A10006021184600F003FB1CE07B6818683B68C7
:104A200059683B68DB681A4600F09AFA7B681B6895
:104A30004021184600F0F3FA0CE07B681A683B68E6
:104A40001B681946104600F0EAFA03E00123FB73E5
:104A500000E000BF7B68012283F83D207B680022D4
:104A600083F83C20FB7B18461037BD4680BD80B4E0
:104A700083B000AF786000BF0C37BD465DF8047BA3
:104A8000704780B483B000AF786000BF0C37BD467C
:104A90005DF8047B704780B483B000AF786000BFDE
:104AA0000C37BD465DF8047B704780B483B000AF1F
:104AB000786000BF0C37BD465DF8047B704700008E
:104AC00080B485B000AF786039607B681B68FB609C
:104AD0007B68404A934213D07B68B3F1804F0FD07C
:104AE0007B683D4A93420BD07B683C4A934207D097
:104AF0007B683B4A934203D07B683A4A934208D191
:104B0000FB6823F07003FB603B685B68FA68134343
:104B1000FB607B682F4A93422BD07B68B3F1804FB8
:104B200027D07B682C4A934223D07B682B4A934240
:104B30001FD07B682A4A93421BD07B68294A934244
:104B400017D07B68284A934213D07B68274A934248
:104B50000FD07B68264A93420BD07B68254A93424C
:104B600007D07B68244A934203D07B68234A934250
:104B700008D1FB6823F44073FB603B68DB68FA688C
:104B80001343FB60FB6823F080023B685B691343BF
:104B9000FB607B68FA681A603B689A687B68DA6237
:104BA0003B681A687B689A627B680A4A934203D022
:104BB0007B680C4A934203D13B681A697B681A638D
:104BC0007B6801225A6100BF1437BD465DF8047B43
:104BD000704700BF00000140000400400008004092
:104BE000000C00400004014000400140004401402E
:104BF0000048014000180040001C00400020004018
:104C000080B487B000AF786039607B681B6A23F09E
:104C100001027B681A627B681B6A7B617B685B6848
:104C20003B617B689B69FB60FB6823F07003FB6062
:104C3000FB6823F00303FB603B681B68FA681343BF
:104C4000FB607B6923F002037B613B689B687A69A8
:104C500013437B617B68204A934203D07B681F4AE1
:104C600093420CD17B6923F008037B613B68DB68CE
:104C70007A6913437B617B6923F004037B617B6862
:104C8000154A934203D07B68144A934211D13B6981
:104C900023F480733B613B6923F400733B613B6801
:104CA0005B693A6913433B613B689B693A6913430B
:104CB0003B617B683A695A607B68FA689A613B6835
:104CC0005A687B685A637B687A691A6200BF1C372E
:104CD000BD465DF8047B70470000014000040140C0
:104CE00080B487B000AF786039607B681B6A23F0BE
:104CF00010027B681A627B681B6A7B617B685B6859
:104D00003B617B689B69FB60FB6823F4E043FB60CD
:104D1000FB6823F44073FB603B681B681B02FA6866
:104D20001343FB607B6923F020037B613B689B6836
:104D30001B017A6913437B617B68224A934203D04B
:104D40007B68214A93420DD17B6923F080037B610C
:104D50003B68DB681B017A6913437B617B6923F045
:104D600040037B617B68174A934203D07B68164AF5
:104D7000934213D13B6923F480633B613B6923F485
:104D800000633B613B685B699B003A6913433B618D
:104D90003B689B699B003A6913433B617B683A69B6
:104DA0005A607B68FA689A613B685A687B689A63C4
:104DB0007B687A691A6200BF1C37BD465DF8047BC8
:104DC000704700BF000001400004014080B487B07C
:104DD00000AF786039607B681B6A23F480727B685F
:104DE0001A627B681B6A7B617B685B683B617B68DE
:104DF000DB69FB60FB6823F07003FB60FB6823F05A
:104E00000303FB603B681B68FA681343FB607B6924
:104E100023F400737B613B689B681B027A69134330
:104E20007B617B68214A934203D07B68204A93428E
:104E30000DD17B6923F400637B613B68DB681B0257
:104E40007A6913437B617B6923F480637B617B68B0
:104E5000164A934203D07B68154A934213D13B69AB
:104E600023F480533B613B6923F400533B613B686F
:104E70005B691B013A6913433B613B689B691B01FA
:104E80003A6913433B617B683A695A607B68FA6808
:104E9000DA613B685A687B68DA637B687A691A6210
:104EA00000BF1C37BD465DF8047B70470000014021
:104EB0000004014080B487B000AF786039607B683F
:104EC0001B6A23F480527B681A627B681B6A3B6111
:104ED0007B685B687B617B68DB69FB60FB6823F454
:104EE000E043FB60FB6823F44073FB603B681B6896
:104EF0001B02FA681343FB603B6923F400533B61D8
:104F00003B689B681B033A6913433B617B68124A09
:104F1000934203D07B68114A934209D17B6923F401
:104F200080437B613B685B699B017A6913437B61CA
:104F30007B687A695A607B68FA68DA613B685A680C
:104F40007B681A647B683A691A6200BF1C37BD46E9
:104F50005DF8047B704700BF000001400004014081
:104F600080B487B000AFF860B9607A60FB681B6AF4
:104F70007B61FB681B6A23F00102FB681A62FB6815
:104F80009B693B613B6923F0F0033B617B681B013C
:104F90003A6913433B617B6923F00A037B617A69B9
:104FA000BB6813437B61FB683A699A61FB687A6965
:104FB0001A6200BF1C37BD465DF8047B704780B4A1
:104FC00087B000AFF860B9607A60FB681B6A23F0B5
:104FD0001002FB681A62FB689B697B61FB681B6AB5
:104FE0003B617B6923F470437B617B681B037A69B7
:104FF00013437B613B6923F0A0033B61BB681B014A
:105000003A6913433B61FB687A699A61FB683A69C4
:105010001A6200BF1C37BD465DF8047B704780B440
:1050200085B000AF786039607B689B68FB60FB6887
:1050300023F07003FB603A68FB68134343F00703F7
:10504000FB607B68FA689A6000BF1437BD465DF864
:10505000047B704780B487B000AFF860B9607A60B5
:105060003B60FB689B687B617B6923F47F437B61CA
:105070003B681A027B681A43BB6813437A6913437F
:105080007B61FB687A699A6000BF1C37BD465DF89A
:10509000047B704780B582B000AF78607B68002BDE
:1050A00001D101233FE07B6893F83D30DBB2002B58
:1050B00006D17B68002283F83C207868FDF74AFA25
:1050C0007B68242283F83D207B681B68DA687B6854
:1050D0001B6822F40052DA60786800F0CDFA7B6831
:1050E0001B681A697B681B6822F490421A617B680E
:1050F0001B685A697B681B6822F02A025A617B6828
:105100001B68DA687B681B6842F40052DA607B68CF
:1051100000221A647B68202283F83D207B682022CD
:1051200083F83E20002318460837BD4680BD80B571
:105130008CB000AFF860B9601346FB80FB6893F851
:105140003E30DBB2202B52D1BB68002B02D0FB8853
:10515000002B01D101234BE0FB6893F83C30012B7D
:1051600001D1022344E0FB68012283F83C20FB6864
:1051700001221A63FB881A46B968F86800F052F9F0
:10518000034687F82F3097F82F30002B2CD1FB687F
:105190001B6B012B25D100233B61FB681B681B683F
:1051A0003B61FB681B685B683B613B69FB681B6894
:1051B0000C33BB61BB6953E8003F7B617B6943F003
:1051C0001003BB62FB681B680C33BA6A7A623B62ED
:1051D000396A7A6A41E80023FB61FB69002BE5D15B
:1051E00002E0012387F82F3097F82F3000E00223E8
:1051F00018463037BD4680BD80B483B000AF7860BC
:1052000000BF0C37BD465DF8047B704780B483B0A7
:1052100000AF786000BF0C37BD465DF8047B704777
:1052200080B483B000AF786000BF0C37BD465DF836
:10523000047B704780B59CB000AF78607B689B6B47
:10524000FB667B681B681B6803F48073002B72D1BC
:10525000FB6E0022DA85FB6E1B680C33FB64FB6C73
:1052600053E8003FBB64BB6C23F48073BB66FB6EEA
:105270001B680C33BA6EBA657B65796DBA6D41E80F
:1052800000233B653B6D002BE5D1FB6E1B6814339F
:10529000BB63BB6B53E8003F7B637B6B23F0010375
:1052A0007B66FB6E1B6814337A6E7A643B64396CE0
:1052B0007A6C41E80023FB63FB6B002BE5D1FB6EAE
:1052C0001B6814337B627B6A53E8003F3B623B6A96
:1052D00023F040033B66FB6E1B6814333A6E3A635F
:1052E000FB62F96A3A6B41E80023BB62BB6A002BA0
:1052F000E5D1FB6E202283F83E20FB6E1B6B012B59
:1053000019D1FB6E1B680C333B613B6953E8003FCE
:10531000FB60FB6823F01003FB65FB6E1B680C331E
:10532000FA6DFA61BB61B969FA6941E800237B61F2
:105330007B69002BE5D1FB6E1B6B012B06D1FB6E4D
:105340009B8D1946F86EFCF75BF902E0F86EFFF7EB
:1053500053FF00BF7037BD4680BD80B584B000AF3D
:1053600078607B689B6BFB60FB681B6B012B08D133
:10537000FB689B8D5B089BB21946F868FCF740F907
:1053800002E0F868FFF742FF00BF1037BD4680BD5E
:1053900080B584B000AF78600023FB607B689B6BB6
:1053A000BB60BB681B685B6903F08003802B0CBF8C
:1053B00001230023DBB2FB60BB6893F83D30DBB216
:1053C000212B08D1FB68002B05D0BB680022DA84B2
:1053D000B86800F0C5F8BB681B685B6903F0400360
:1053E000402B0CBF01230023DBB2FB60BB6893F8AA
:1053F0003E30DBB2222B08D1FB68002B05D0BB6806
:105400000022DA85B86800F0D3F8BB681B6C43F063
:105410001002BB681A64B868FFF702FF00BF1037BC
:10542000BD4680BD80B598B000AFF860B960134646
:10543000FB80BA68FB689A62FB68FA889A85FB6809
:1054400000221A64FB68222283F83E20FB689B6BD3
:10545000404ADA63FB689B6B3F4A1A64FB689B6BAC
:105460003E4ADA64FB689B6B00221A6507F1080369
:10547000FB65FB68986BFB681B6804331946FB6D82
:105480001A68FB88FDF796FC00233B61FB681B68EC
:105490001B683B61FB681B685B683B613B69FB68A1
:1054A000002283F83C20FB681B69002B19D0FB68A5
:1054B0001B680C333B643B6C53E8003FFB63FB6BA6
:1054C00043F48073BB65FB681B680C33BA6DFA64E8
:1054D000BB64B96CFA6C41E800237B647B6C002BE5
:1054E000E5D1FB681B681433FB62FB6A53E8003F9D
:1054F000BB62BB6A43F001037B65FB681B68143326
:105500007A6DBA637B63796BBA6B41E800233B63C6
:105510003B6B002BE5D1FB681B681433BB61BB6997
:1055200053E8003F7B617B6943F040033B65FB68C8
:105530001B6814333A6D7A623B62396A7A6A41E8D1
:105540000023FB61FB69002BE5D10023184660377F
:10555000BD4680BD355200085B53000891530008DA
:1055600080B489B000AF78607B681B680C33FB6047
:10557000FB6853E8003FBB60BB6823F0C003FB61DE
:105580007B681B680C33FA69BA617B617969BA6917
:1055900041E800233B613B69002BE5D17B68202279
:1055A00083F83D2000BF2437BD465DF8047B70477B
:1055B00080B495B000AF78607B681B680C337B6368
:1055C0007B6B53E8003F3B633B6B23F49073FB64BE
:1055D0007B681B680C33FA6C3A64FB63F96B3A6CBA
:1055E00041E80023BB63BB6B002BE5D17B681B68E4
:1055F00014333B623B6A53E8003FFB61FB6923F0D5
:105600000103BB647B681B681433BA6CFA62BB622B
:10561000B96AFA6A41E800237B627B6A002BE5D114
:105620007B681B6B012B19D17B681B680C33FB60FB
:10563000FB6853E8003FBB60BB6823F010037B644A
:105640007B681B680C337A6CBA617B617969BA69D3
:1056500041E800233B613B69002BE5D17B682022B8
:1056600083F83E207B6800221A6300BF5437BD4692
:105670005DF8047B704700002DE9B04FC0B000AF6B
:10568000C7F8F400D7F8F4301B681B6923F44050C6
:10569000D7F8F430D968D7F8F4301A6840EA010333
:1056A0001361D7F8F4309A68D7F8F4301B691A43BD
:1056B000D7F8F4305B691A43D7F8F430DB69134349
:1056C000C7F8F830D7F8F4301B68DB6823F41641CC
:1056D00021F00C01D7F8F4301A68D7F8F8300B43F2
:1056E000D360D7F8F4301B685B6923F44070D7F8B7
:1056F000F4309969D7F8F4301A6840EA010353612D
:10570000D7F8F4301A688F4B9A4205D0D7F8F430A6
:105710001A688D4B9A4204D1FEF762FCC7F8FC0070
:1057200003E0FEF749FCC7F8FC00D7F8F430DB696A
:10573000B3F5004F40F00C81D7F8FC300022C7F8D9
:10574000E830C7F8EC20D7E93A4522462B469118B5
:10575000B9655B41FB65D7E91623214612EB0108C9
:10576000294643EB01094FF000024FF000034FEAD6
:10577000C90343EA58734FEAC80290469946234644
:1057800018EB0303C7F8E0302B4649EB0303C7F8D7
:10579000E430D7F8F4305B680022C7F8D830C7F897
:1057A000DC20D7E936120B46DB183B65134642EB8B
:1057B00003037B65D7E91423D7E93801FBF734FAF3
:1057C00002460B46614BA3FB02235B091C01D7F881
:1057D000FC300022C7F8D030C7F8D420D7E934898C
:1057E00042464B469118B9645B41FB64D7E91223EA
:1057F000414612EB010A494643EB010B4FF0000210
:105800004FF000034FEACB0343EA5A734FEACA0250
:1058100092469B4643461AEB0303C7F8C8304B46F3
:105820004BEB0303C7F8CC30D7F8F4305B680022A9
:10583000C7F8C030C7F8C420D7E930120B46DB18D0
:105840003B64134642EB03037B64D7E91023D7E99B
:105850003201FBF7E9F902460B4611463B4BA3FB2D
:1058600001235B09642202FB03F3CB1ADB0003F183
:105870003202364BA3FB02235B095B0003F4F8738F
:105880001C44D7F8FC300022C7F8B830C7F8BC2059
:10589000D7E92E8942464B469118B9635B41FB63B9
:1058A000D7E90E2341465118396349464B417B6382
:1058B0004FF000024FF00003D7E90CAB5946CB0084
:1058C000514643EA51735146CA00104619460346F1
:1058D00042469B18C7F8B0304B460A4642EB0303DA
:1058E000C7F8B430D7F8F4305B680022C7F8A830A6
:1058F000C7F8AC20D7E92A120B46DB18BB62134667
:1059000042EB0303FB62D7E90A23D7E92C01FBF73B
:105910008BF902460B460D4BA3FB02135B09642176
:1059200001FB03F3D31ADB003233084AA2FB032343
:105930005B0903F00702D7F8F4301B6822449A6031
:1059400006E100BF00100140001401401F85EB512B
:10595000D7F8FC300022C7F8A030C7F8A420D7E958
:10596000288942464B46911839625B417B62D7E9F0
:10597000082341465418494643EB01054FF0000205
:105980004FF00003EB0043EA5473E20014461D4657
:105990004346E318C7F898304B4645EB0303C7F876
:1059A0009C30D7F8F4305B680022C7F89030C7F815
:1059B00094204FF000024FF00003D7E92445294618
:1059C0008B00214643EA917321468A00D7E92601DC
:1059D000FBF72AF902460B46604BA3FB02235B0947
:1059E0001C01D7F8FC300022C7F88830C7F88C209B
:1059F000D7E9228942464B469118B9615B41FB6168
:105A0000D7E9062341465118396149464B417B612C
:105A10004FF000024FF00003D7E904AB5946CB002A
:105A2000514643EA51735146CA001046194603468F
:105A300042469B18C7F880304B460A4642EB0303A8
:105A4000C7F88430D7F8F4305B680022BB67FA6788
:105A50004FF000024FF00003D7E91E8949468B0042
:105A6000414643EA917341468A00D7E92001FBF79A
:105A7000DBF802460B461146384BA3FB01235B09BA
:105A8000642202FB03F3CB1A1B013233334AA2FB1D
:105A900003235B0903F0F0031C44D7F8FC30002219
:105AA0003B677A67D7E91C8942464B469118B96033
:105AB0005B41FB60D7E902234146511839604946F2
:105AC0004B417B604FF000024FF00003D7E900AB81
:105AD0005946CB00514643EA51735146CA0010461D
